:100000000C9479000C94B90B0C94E00B0C94A100A7
:100010000C94A1000C94A1000C94A1000C94A100DC
:100020000C94A1000C94A1000C94A1000C94EF0777
:100030000C94A1000C94A1000C94A1000C94A100BC
:100040000C94070C0C94A1000C94670F0C94990F5E
:100050000C94A1000C94A1000C94A1000C94A1009C
:100060000C94A1000C94A10005A84CCDB2D44EB9BB
:100070003836A9020C50B9918688083CA6AAAA2A4B
:10008000BE000000803F72740492740448940478A7
:10009000C40C000000080002010000030407000077
:1000A000000000000000010204081020408001024E
:1000B00004081020010204081020040404040404AD
:1000C000040402020202020203030303030300000A
:1000D0000000230026002900000000002500280061
:1000E0002B0000000000240027002A00D2010D058B
:1000F000C90F11241FBECFEFD8E0DEBFCDBF12E085
:10010000A0E0B1E0ECE2FEE202C005900D92A6385C
:10011000B107D9F724E0A6E8B2E001C01D92A937E3
:10012000B207E1F710E0C2EFD0E004C02297FE0171
:100130000E949413CC3ED107C9F70E940D100C9475
:1001400014170C940000EF92FF920F931F93CF931C
:10015000DF93CDB7DEB7C055D1090FB6F894DEBF37
:100160000FBECDBF6B960EAD1FAD6B979E01235A90
:100170003F4F6D964EAD5FAD6D9760E570E0CE017F
:1001800001960E941B14CE0101967C01F70180812B
:100190008823B9F08A3049F4D801ED91FC9101909F
:1001A000F081E02D6DE0C8010995D801ED91FC9139
:1001B0000190F081E02DD7016D917D01C801099575
:1001C000E5CFC05BDF4F0FB6F894DEBF0FBECDBFEB
:1001D000DF91CF911F910F91FF90EF900895CF93F2
:1001E000DF9326E040E052EC61E070E08CED93E0BC
:1001F0000E94050F80E992E00E94100261E089E010
:100200000E94880D61E085E00E94880D1F9286E0C3
:100210008F938EE091E09F938F938CED93E09F936B
:100220008F930E94A300C091B803D091B903CE016F
:100230000E9419168093B5030F900F900F900F90A6
:100240000F900F90863021F066E0CE010E942116BB
:10025000C091B603D091B703CE010E941916813028
:1002600021F061E0CE010E9421168091B8039091A7
:10027000B9030E9419168093B5031F928F9387E2EA
:1002800091E09F938F938CED93E09F938F930E94C7
:10029000A3000F900F900F900F900F900F90DF9191
:1002A000CF9108958091B503813059F44091860231
:1002B00050918702411114C061E080E992E00C94F2
:1002C000AA0280E992E00E943102882349F08091DD
:1002D000B3039091B40303969093870280938602B0
:1002E00008950F931F930E945D0C60938C0270938E
:1002F0008D0280938E0290938F028091860290915E
:100300008702019690938702809386028AEB93E09E
:100310000E94BE02609186027091870280E090E0A8
:100320000E94E9010E9452010E945D0C00918C0222
:1003300010918D0220918E0230918F02601B710B03
:10034000820B930B609388027093890280938A02D8
:1003500090938B02603127E272078105910548F482
:1003600020E137E2C901861B970B1F910F910C9476
:10037000BA0C9F938F937F936F9385E391E09F9344
:100380008F938CED93E09F938F930E94A3008DB782
:100390009EB708960FB6F8949EBF0FBE8DBF1F91F3
:1003A0000F9108951092B7031092B60381E090E088
:1003B0009093B9038093B80320EC33E042E06AE005
:1003C00080E992E00C944D08682F70E085E00C9471
:1003D000000D0E94821120E030E040E85BE30E94C3
:1003E00046129B01AC010E9485102BED3FE049E4D1
:1003F00050E40E9446120E94A91220E030E04FEF24
:1004000052E40E94461220E030E04FEF52E40E9496
:1004100085100E945111862F0E94E4010C94970BC5
:10042000CF93DF93EC010E94140B882319F08FE324
:1004300091E002C085E591E09F938F938CED93E06E
:100440009F938F930E94A3000F900F900F900F9097
:1004500040E050EC64E674E4CE01DF91CF910C945F
:10046000CE08EF92FF920F931F93CF93DF931F92CB
:10047000CDB7DEB78C01DC01ED91FC910484F585EC
:10048000E02D099583E08983C8010E94100A81113B
:1004900002C080E029C07801BEEDEB1ABEEFFB0A76
:1004A000AE014F5F5F4FB701C8010E948E088823DD
:1004B00081F3F801ED5DFE4F81818F9380818F93F1
:1004C000F70180811F928F9388E691E09F938F932D
:1004D0008CED93E09F938F930E94A3000FB6F89446
:1004E000DEBF0FBECDBF81E00F90DF91CF911F9196
:1004F0000F91FF90EF900895CF93DF9300D000D03D
:10050000CDB7DEB7FB0122812F9321812F9320816C
:100510001F922F932BE731E03F932F932CED33E085
:100520003F932F936B837C8389839A830E94A300DC
:100530000FB6F894DEBF0FBECDBF43E06B817C8168
:1005400089819A810F900F900F900F90DF91CF913A
:100550000C943A0ACF93DF9300D01F92CDB7DEB749
:1005600069835B834A83BE016F5F7F4F0E947C0279
:100570000F900F900F90DF91CF910895CF93DF935D
:10058000EC01898190E0019664E670E00E941E1300
:100590008983892B41F4688189E00E94C10D88819B
:1005A00091E089278883DF91CF910895CF93CFB7CA
:1005B000F8948091BF03811127C0E4ECF0E08491AE
:1005C000E0EBF0E09491E82FF0E0EE0FFF1FEE512A
:1005D000FF4FA591B4918C91892321F461E08AE0C9
:1005E0000E94C10D61E08AE00E94880D8CB5806197
:1005F0008CBD8CB580648CBD61E08DE00E94880D5F
:1006000061E08BE00E94880D8091BF038F5F809333
:10061000BF03CFBFCF9108959FB7F8948091BF03D8
:10062000882319F081508093BF038091BF0381110B
:1006300005C08CB58F7B8CBD1092BE039FBF089503
:1006400081E0089580E00895FC0165830895FC0130
:1006500064830895FC0162870895FC01638708950F
:10066000FC01648708954095FC0125854223462BB3
:1006700045870895FC0186810895FC0187810895CE
:10068000FC0180850895FC018185089580E008952E
:10069000FC01808991890895FC01828993890895DC
:1006A000FC01848995890895CF93DF93EC01E8815B
:1006B000F9810280F381E02DCE010995811103C0FB
:1006C0000E94970BF4CFDF91CF910895CF93DF93E2
:1006D000EC018A819B81039719F40E94970BF9CF53
:1006E00081E0DF91CF9108958F929F92AF92BF9258
:1006F000CF92DF92EF92FF92CF93DF93EC016B01E9
:100700000E94510C4B015C01E12CF12C0E94510C18
:10071000681979098A099B096C157D058E059F0565
:1007200060F4E881F9810280F381E02DCE01099522
:10073000811105C00E94970BE9CF80E001C081E0E4
:10074000DF91CF91FF90EF90DF90CF90BF90AF906F
:100750009F908F9008958F929F92AF92BF92CF9269
:10076000DF92EF92FF92CF93DF93EC016B010E9437
:10077000510C4B015C01E12CF12C0E94510C6819C9
:1007800079098A099B096C157D058E059F0538F44A
:100790008A819B81039729F40E94970BEECF80E01A
:1007A00001C081E0DF91CF91FF90EF90DF90CF907B
:1007B000BF90AF909F908F900895CF92DF92EF926D
:1007C000FF920F931F93CF93DF93EC018F89988D46
:1007D000892B89F10E94510C6B017C01E881F98120
:1007E0000488F589E02DCE010995882321F10E9426
:1007F000510C6C197D098E099F090F89188D20E015
:1008000030E0061717072807390798F02AE030E08C
:1008100040E050E061E070E080E090E00E9468100D
:100820009B01AC01A4E6B0E00E9473130E94800C0F
:10083000D5CF80E001C081E0DF91CF911F910F9172
:10084000FF90EF90DF90CF900895FC0184E991E054
:1008500091838083138212828FEF848382878387C0
:1008600014861586118A108A138A128A158A148AA8
:10087000108E178A0895089508950895089508958B
:10088000FC01758364830895FC0177836683089572
:10089000FC01738362830895FC018AEC91E09183EB
:1008A00080837383628355834483378326830895CB
:1008B0006EBD00000DB407FEFDCF8EB508958CB55A
:1008C00080688CBD08958CB58F778CBD0895FC0130
:1008D000308521858091BE03882399F09FB7F894D5
:1008E0008091BE03813059F48DB38093BC034DB326
:1008F0008091BD03809584238DBB9FBF02C09093E0
:10090000BC033CBD2DBD08958091BE03882361F0DA
:100910009FB7F8942091BE038091BC03213019F455
:100920008DBB9FBF08958FBF089508950C940C034D
:100930000F931F93CF93FC018281938184309105A3
:1009400069F08330910579F08230910589F0019743
:10095000A1F440E854E86EE170E013C040E054E2D6
:1009600064EF70E00EC040E052E16AE770E009C059
:1009700040E059E06DE370E004C040E452E46FE011
:1009800070E0A481B58186819781009771F08130F4
:10099000910539F08230910531F0039731F4CCE0C4
:1009A00005C0C4E003C0C8E001C0C0E080E000E0D2
:1009B00012E12AE730E0401751076207730740F45D
:1009C00036952795179507958F5F8630A1F787E0B5
:1009D00021E02827119711F430E701C030E5822F7C
:1009E00090E09595879583708C2B832B8087217061
:1009F0002187CF911F910F910C94D602CF93DF9353
:100A0000EC010E944C0484EE91E09983888380E598
:100A100088871986DF91CF91089520E030E040E08B
:100A200050E060E070E080EC93E00C94FE04CF9323
:100A3000DF93EC01898D9A8DDC01ED91FC910680AC
:100A4000F781E02D099561E08B8D0E94880D61E0B2
:100A50008B8D0E94C10D64E670E080E090E00E9402
:100A6000800C81E0DF91CF910895EF92FF920F9378
:100A70001F93CF93DF931F92CDB7DEB77C018A011E
:100A800069830E9425048EEF91E0F70191838083B2
:100A9000128F018F6981638F0F90DF91CF911F912A
:100AA0000F91FF90EF9008950F931F93CF93DF93D3
:100AB000EC01062F1FB7F89460E08B8D0E94C10DEA
:100AC000898D9A8DDC01ED91FC91602F6F770190FB
:100AD000F081E02D0995898D9A8DDC01ED91FC91D5
:100AE0000190F081E02D60E00995082F61E08B8D89
:100AF0000E94C10D1FBF802FDF91CF911F910F91D9
:100B00000895EF92FF920F931F93CF93DF931F925D
:100B1000CDB7DEB77C01062F1FB7F894DC015996DC
:100B20008D919C915A97DC01ED91FC910088F1899F
:100B3000E02D4983099560E0F701838D0E94C10D86
:100B4000D70159968D919C915A97DC01ED91FC91BA
:100B5000602F60680190F081E02D0995082FF70162
:100B6000818D928DDC01ED91FC910190F081E02D61
:100B70004981642F099561E0F701838D0E94C10DC1
:100B8000D70159968D919C915A97DC01ED91FC917A
:100B90000288F389E02D09951FBF802F0F90DF9108
:100BA000CF911F910F91FF90EF900895AF92BF9258
:100BB000DF92EF92FF920F931F93CF93DF9300D0BA
:100BC000CDB7DEB75C01162FD22EFFB6F894DC014C
:100BD00059968D919C915A97DC01ED91FC9100887A
:100BE000F189E02D49835A83099560E0F501838DF1
:100BF0000E94C10DD50159968D919C915A97DC01A7
:100C0000ED91FC91612F6F770190F081E02D0995B6
:100C1000E82E4981042F5A81152FD40ED01679F071
:100C2000F501818D928DDC01ED91FC910190F081B7
:100C3000E02D60E00995F80181938F01EFCF61E02D
:100C4000D5015B968C910E94C10DF501818D928D2D
:100C5000DC01ED91FC910288F389E02D0995FFBE3E
:100C60008E2D0F900F90DF91CF911F910F91FF90DC
:100C7000EF90DF90BF90AF900895AF92BF92DF9258
:100C8000EF92FF920F931F93CF93DF9300D0CDB7D6
:100C9000DEB75C01162FD22EFFB6F894DC01599610
:100CA0008D919C915A97DC01ED91FC910088F1891E
:100CB000E02D49835A83099560E0F501838D0E94F8
:100CC000C10DD50159968D919C915A97DC01ED91FA
:100CD000FC91612F60680190F081E02D0995E82E6C
:100CE0004981042F5A81152FD40ED01671F0F501C9
:100CF000818D928DD8016D918D01DC01ED91FC917A
:100D00000190F081E02D0995F0CF61E0F501838D30
:100D10000E94C10DD50159968D919C915A97DC0185
:100D2000ED91FC910288F389E02D0995FFBE8E2D8F
:100D30000F900F90DF91CF911F910F91FF90EF9047
:100D4000DF90BF90AF900895DC0159968D919C91F2
:100D50005A97DC01ED91FC910488F589E02D099406
:100D6000CF93DF93EC018B8D0E94F70D21E0892B4F
:100D700009F420E08E8D8227DF91CF910895FC0148
:100D8000848D0C94C10DFC01278D6227858D0C94F8
:100D9000C10DCF93DF93EC018A819B81029761F0B3
:100DA00060E0CE010E94C30660E0CE010E94BF0653
:100DB00082E090E09B838A83DF91CF910895862F14
:100DC00086958695887098E0980F891749F0E82FE6
:100DD000F0E0E05DFD4F2081621719F08F5FF5CFE5
:100DE00080E008951F93CF93DF93EC010E94B0063B
:100DF000882319F09BA19F5F9BA39AA1891771F08B
:100E00009CA1903518F42BE030E002C02DE130E0D9
:100E10009CA1290F311D2CA38AA303C08CA18C5E39
:100E20008CA38CA1803A08F46EC08EA19FA19695E8
:100E300087959FA38EA38BA1853028F08EA19FA1BB
:100E400098609FA38EA38CA1805A8CA31BA28DA116
:100E5000882309F446C088A58F5F88A78C3008F4E2
:100E600052C06EA17FA16F73CE010E94DF06182FC2
:100E70006EA17FA146E0769567954A95E1F7CE0190
:100E80000E94DF0690E1199F90011124822BBE0180
:100E900063597F4FFB019081DE01A459BF4F992315
:100EA000B1F0FB01908121E0290F2083AE01490FB1
:100EB000511DFA0181A7FB0190818C91981778F060
:100EC0001DA281E088A3CE010E94C90608C08C93B0
:100ED0009C91973090F09C91943478F4E2CF18A6CE
:100EE00012C08EA19FA188339B4069F481E08DA33D
:100EF00018A6C359DF4F188206C01DA28889998998
:100F00000196998B888BDF91CF911F910895CF9295
:100F1000DF92EF92FF920F931F93CF93DF93EC0139
:100F20008C0100591F4FF801808191E0980F908348
:100F3000811136C06E01FEE6CF0ED11CF601808114
:100F4000EF56FF4F9081891748F0CE010E94C906E5
:100F50008C899D8901969D8B8C8B22C0FE01E80FA8
:100F6000F11DEF58FF4F608170E07E01FFE6EF0E4C
:100F7000F11CF701808191E0980F908302C0759574
:100F800067958A95E2F76170CE010E94BF06F7016E
:100F90008081863028F01082F60180818F5F808307
:100FA000F8018081883008F01082DF91CF911F9185
:100FB0000F91FF90EF90DF90CF900895FC01228178
:100FC00033812430310511F40C94F206FC012281A6
:100FD00033812330310511F40C94870708951F9253
:100FE0000F920FB60F9211242F933F934F935F935D
:100FF0006F937F938F939F93AF93BF93EF93FF93E1
:101000008091CA039091CB030E94DE07FF91EF917C
:10101000BF91AF919F918F917F916F915F914F9110
:101020003F912F910F900FBE0F901F9018958BEF4F
:101030000895CF93DF93EC018A819B81059771F02E
:1010400047E061E0CE010E94810540E860E4CE0106
:101050000E94810585E090E09B838A838A819B8141
:10106000059719F40E94970BF9CF8E89DF91CF91E4
:101070000895CF93DF93EC018A819B81019749F01A
:1010800040E061E0CE010E94810581E090E09B8319
:101090008A8381E0DF91CF9108951F93CF93DF93EF
:1010A000EC01142FA9010E94350584E492E0998394
:1010B0008883FE01E15EFE4F10821D8F8FEF8E8FC1
:1010C000DF91CF911F910895FC01878D8430D8F076
:1010D00080A1868381A1878382A1808783A1818764
:1010E0008581811107C096818481981719F08681C6
:1010F0008F3F49F4828993890196938B828BE15EBD
:10110000FE4F81E0808308952FB7F894FC01E15EE3
:10111000FE4F1082FC01178E2FBF0895CF92DF92F1
:10112000EF92FF920F931F93CF93DF93EC017B011C
:101130008A01E881F9810280F381E02D0995D82E9A
:10114000882311F1E114F104E1F001151105C9F052
:10115000CFB6F8942F8D30E023503109F80140814B
:1011600050E0421753071CF09F8D94509083F80174
:10117000408150E0BE016C5D7F4FC7010E94121498
:10118000CFBECE010E9484088D2DDF91CF911F919B
:101190000F91FF90EF90DF90CF9008958F929F92E4
:1011A000AF92BF92CF92DF92EF92FF921F93CF93B5
:1011B000DF93EC014A015B0120E034E244E759E4AB
:1011C000C501B4010E94461220E034E244E752E433
:1011D0000E94E9100E9456116B017C01A70166274D
:1011E000772766E0CE010E94810577276F2D5E2D5F
:1011F0004D2D67E0CE010E9481054C2D68E0CE01A7
:101200000E948105C05EDE4F11E020E030EC42E438
:1012100054E4C501B4010E94421287FD10E0188316
:1012200081E0DF91CF911F91FF90EF90DF90CF9001
:10123000BF90AF909F908F900895CF93DF93EC0174
:101240008A819B81029749F041E061E0CE010E94D2
:10125000810582E090E09B838A83DF91CF9108959E
:101260000F931F93CF93DF93EC0162E10E9454052B
:101270002A813B812430310519F4982F907A49F462
:101280002A813B812430310509F07CC086FD14C0E1
:1012900079C0888999890196998B888B4FEF62E193
:1012A000CE010E9481054FEF62E1CE01DF91CF9127
:1012B0001F910F910C94810563E1CE010E945405AA
:1012C000182F60E1CE010E945405482F6DE0CE0139
:1012D0000E948105212FAE01405E5F4F60E0CE018C
:1012E0000E94D6051F8F4FEF62E1CE010E9481055B
:1012F00069E1CE010E9454058E010F5D1E4F87FDEE
:101300008D5F85958595F80180836AE1CE010E9405
:10131000540590E09F878E87F801208127FF09C040
:101320008E859F85820F911D27FD9A959F878E87B9
:101330000DC08E859F8524E0880F991F2A95E1F7BF
:101340006FE070E00E941E137F876E87FE01E05EF3
:10135000FE4F8081882329F08E859F858D599109C4
:1013600004C08E859F85845A91099F878E87CE0100
:101370000E946408FE01E15EFE4F8081882309F42B
:101380008DCF0CC02A813B812330310559F483FF76
:1013900009C08C899D8901969D8B8C8BCE010E9402
:1013A0001D097CCF2A813B812530310509F076CF9C
:1013B00082FF74CF81708E8BF1CF8091CD0390919D
:1013C000CE03009711F00C94300908958091CF035B
:1013D0009091D003009711F00C94300908958091FA
:1013E000D1039091D203009711F00C943009089525
:1013F000CF93DF93EC018A819B81049771F045E0E4
:1014000061E0CE010E94810540E060E4CE010E94CF
:10141000810584E090E09B838A83DF91CF910895DA
:10142000CF93DF93EC018A819B81039739F0CE0142
:101430000E94F809C15EDE4F888101C080E0DF9123
:10144000CF910895CF93DF93EC018A819B8103971D
:1014500071F043E061E0CE010E94810540E460E468
:10146000CE010E94810583E090E09B838A83DF9117
:10147000CF910895EF92FF920F931F93CF93DF9335
:10148000EC018B01F42E8BEF8417E8F1E881F981F0
:101490000484F585E02DCE010995CE010E941D0939
:1014A000E881F9810288F389E02DCE010995E82EC3
:1014B000882351F140E06DE0CE010E9481054A850C
:1014C00060E0CE010E9481054B8560E0CE010E9464
:1014D00081054C8560E0CE010E9481054D8560E06C
:1014E000CE010E9481052F2DA80160E0CE010E944F
:1014F0003D0644E04F0D62E2CE010E948105CE011F
:101500000E94220A01C0E12C8E2DDF91CF911F9104
:101510000F91FF90EF9008951F93CF93DF93EC010D
:10152000162F442359F06F3024F46F3F1CF41FEF43
:1015300001C01EE041E0410F406718C068312CF443
:1015400065305CF0653114F409C017E147E06DE4E3
:10155000CE010E948105135006C015E044E06DE401
:10156000CE010E9481054BEF410F406869E0CE013A
:10157000DF91CF911F910C9481050F931F93CF930F
:10158000DF93EC018B01FB0140816DE10E9481053D
:10159000F80141816EE1CE010E948105F80142818E
:1015A00066E2CE01DF91CF911F910F910C948105DE
:1015B0000F931F93CF93DF9300D01F92CDB7DEB769
:1015C0008C0165307105B4F49B01220F331F260F87
:1015D000371F2A573F4F43E050E0B901CE01019633
:1015E0000E940914BE016F5F7F4FC8010E94BD0AAF
:1015F00081E001C080E00F900F900F90DF91CF91BC
:101600001F910F9108951F93CF93DF93EC01162F35
:10161000472F60E20E948105412F61E2CE01DF91F8
:10162000CF911F910C9481050F931F93CF93DF935C
:10163000EC010E941705082F811102C000E071C063
:101640008D8D823021F08330C9F711E001C010E0A8
:10165000612FCE010E94A40640E861E0CE010E9405
:1016600081056AE070E080E090E00E94800C61E01B
:10167000CE010E945405803809F760E08D8D0E94EC
:10168000880D8E8D8F3F49F48091CC038430B0F665
:1016900091E0980F9093CC038E8F9E8DE92FF0E010
:1016A000EE0FFF1FE353FC4FD183C083911105C0A0
:1016B00043E050E06DED79E00EC0913029F443E055
:1016C00050E066EE79E007C0923009F0B7CF43E012
:1016D00050E06FEE79E0812F0E94990B40E06EE0C0
:1016E000CE010E94810540E06FE0CE010E9481059D
:1016F000CE010E941D0960E070E0CE010E94D80A70
:1017000068E070E0CE010E94030B40E050E069ED1C
:1017100073E4CE010E94CE0840E06DE0CE010E944D
:101720008C0A802FDF91CF911F910F91089508951A
:1017300008958230E8F4E82FF0E0EE0FFF1FE65F37
:10174000FE4F71836083813041F0809169008C7F0E
:10175000842B80936900E89A089580916900440F72
:10176000551F440F551F837F842B80936900E99A8E
:1017700008951F920F920FB60F9211242F933F934B
:101780004F935F936F937F938F939F93AF93BF9389
:10179000EF93FF93E0910A01F0910B010995FF91FE
:1017A000EF91BF91AF919F918F917F916F915F91D9
:1017B0004F913F912F910F900FBE0F901F90189552
:1017C0001F920F920FB60F9211242F933F934F93B6
:1017D0005F936F937F938F939F93AF93BF93EF9399
:1017E000FF93E0910C01F0910D010995FF91EF91AC
:1017F000BF91AF919F918F917F916F915F914F9129
:101800003F912F910F900FBE0F901F9018951F9230
:101810000F920FB60F9211242F933F938F939F93A4
:10182000AF93BF938091D4039091D503A091D60339
:10183000B091D7033091D30323E0230F2D3720F449
:101840000196A11DB11D05C026E8230F0296A11D1A
:10185000B11D2093D3038093D4039093D503A09319
:10186000D603B093D7038091D8039091D903A09168
:10187000DA03B091DB030196A11DB11D8093D8035B
:101880009093D903A093DA03B093DB03BF91AF9198
:101890009F918F913F912F910F900FBE0F901F90AE
:1018A00018952FB7F8946091D4037091D503809167
:1018B000D6039091D7032FBF08953FB7F894809136
:1018C000D8039091D903A091DA03B091DB0326B538
:1018D000A89B05C02F3F19F00196A11DB11D3FBF68
:1018E0006627782F892F9A2F620F711D811D911DF8
:1018F00042E0660F771F881F991F4A95D1F7089518
:101900008F929F92AF92BF92CF92DF92EF92FF920F
:101910006B017C010E945D0C4B015C01C114D10480
:10192000E104F104F1F00E94970B0E945D0C68192C
:1019300079098A099B09683E73408105910570F316
:1019400021E0C21AD108E108F10888EE880E83E090
:10195000981EA11CB11CC114D104E104F10429F7A3
:10196000DDCFFF90EF90DF90CF90BF90AF909F9032
:101970008F9008958230910538F0880F991F880F55
:10198000991F05970197F1F70895789484B58260BF
:1019900084BD84B5816084BD85B5826085BD85B513
:1019A000816085BDEEE6F0E0808181608083E1E8C2
:1019B000F0E01082808182608083808181608083FA
:1019C000E0E8F0E0808181608083E1EBF0E08081FD
:1019D00084608083E0EBF0E0808181608083EAE7CF
:1019E000F0E0808184608083808182608083808158
:1019F000816080838081806880831092C100089517
:101A00001F93CF93DF93182FEB0161E00E94880DA5
:101A1000209711F460E004C0CF3FD10539F461E0B4
:101A2000812FDF91CF911F910C94C10DE12FF0E038
:101A3000EE56FF4FE491E330F9F048F4E130B9F0AD
:101A4000E230A1F584B5806284BDC8BD34C0E73002
:101A5000E9F0E83019F1E43049F5809180008062C6
:101A600080938000D0938B00C0938A0024C084B5FB
:101A7000806884BDC7BD1FC080918000806880934E
:101A80008000D0938900C093880015C08091B00079
:101A900080688093B000C093B3000DC08091B00007
:101AA00080628093B000C093B40005C0C038D105F7
:101AB0000CF0B5CFAFCFDF91CF911F910895833058
:101AC00081F028F4813099F08230A1F008958730B8
:101AD000A9F08830B9F08430D1F4809180008F7DF6
:101AE00003C0809180008F7780938000089584B533
:101AF0008F7702C084B58F7D84BD08958091B0003A
:101B00008F7703C08091B0008F7D8093B0000895DF
:101B1000CF93DF9390E0FC01EA55FF4F2491FC0145
:101B2000E654FF4F8491882349F190E0880F991F74
:101B3000FC01EE51FF4FA591B49188529F4FFC01DB
:101B4000C591D4919FB7611108C0F8948C912095EC
:101B500082238C93888182230AC0623051F4F894E6
:101B60008C91322F309583238C938881822B8883AC
:101B700004C0F8948C91822B8C939FBFDF91CF91FE
:101B800008950F931F93CF93DF931F92CDB7DEB7C6
:101B9000282F30E0F901EE56FF4F8491F901EA5504
:101BA000FF4F1491F901E654FF4F04910023C9F04F
:101BB000882321F069830E945F0D6981E02FF0E0A6
:101BC000EE0FFF1FE852FF4FA591B4919FB7F89415
:101BD0008C91611103C01095812301C0812B8C93DE
:101BE0009FBF0F90DF91CF911F910F910895CF93D9
:101BF000DF93282F30E0F901EE56FF4F8491F90171
:101C0000EA55FF4FD491F901E654FF4FC491CC231C
:101C100091F081110E945F0DEC2FF0E0EE0FFF1F9D
:101C2000E253FF4FA591B4912C912D2381E090E0D8
:101C300021F480E002C080E090E0DF91CF91089530
:101C40000E940414FC01818D228D90E0805C9F4FE6
:101C5000821B91098F7399270895FC01918D828DC4
:101C6000981731F0828DE80FF11D858D90E0089571
:101C70008FEF9FEF0895FC01918D828D981761F091
:101C8000828DDF01A80FB11D5D968C91928D9F5FB3
:101C90009F73928F90E008958FEF9FEF08958FEBE1
:101CA0009FE0892B49F080E090E0892B29F00E9489
:101CB000BF0F81110C9400000895FC01848DDF0199
:101CC000A80FB11DA35ABF4F2C91848D90E00196AF
:101CD0008F739927848FA689B7892C93A089B1899E
:101CE0008C9180648C93938D848D981306C00288A8
:101CF000F389E02D80818F7D80830895CF93DF93DA
:101D0000EC01888D8823C9F0EA89FB89808185FDF3
:101D100005C0A889B9898C9186FD0FC00FB607FC54
:101D2000F5CF808185FFF2CFA889B9898C9185FF95
:101D3000EDCFCE010E945D0EE7CFDF91CF910895E8
:101D4000CF92DF92FF920F931F93CF93DF931F9257
:101D5000CDB7DEB76C0181E0D60158968C935897C9
:101D60005B969C915B975C968C915C97981307C0EF
:101D70005096ED91FC915197808185FD2EC0F60122
:101D8000038D10E00F5F1F4F0F731127F02EF60128
:101D9000848DF81211C00FB607FCF9CFD60150960A
:101DA000ED91FC915197808185FFF1CFC601698348
:101DB0000E945D0E6981EBCF838DE80FF11DE35A20
:101DC000FF4F6083D6015B960C935B975296ED9123
:101DD000FC915397808180620CC0D6015696ED919C
:101DE000FC91579760835096ED91FC9151978081BB
:101DF0008064808381E090E00F90DF91CF911F910C
:101E00000F91FF90DF90CF900895BF92CF92DF9215
:101E1000EF92FF92CF93DF93EC016A017B01B22E28
:101E2000E889F98982E08083411581EE58076105D0
:101E30007105A1F060E079E08DE390E0A7019601E3
:101E40000E94321321503109410951095695479595
:101E500037952795211580E1380798F0E889F989A9
:101E6000108260E874E88EE190E0A70196010E947C
:101E7000321321503109410951095695479537953B
:101E80002795EC85FD853083EE85FF852083188EB0
:101E9000EC89FD89B082EA89FB8980818061808339
:101EA000EA89FB89808188608083EA89FB89808157
:101EB00080688083EA89FB8980818F7D8083DF91C0
:101EC000CF91FF90EF90DF90CF90BF9008951F9239
:101ED0000F920FB60F9211242F938F939F93EF932E
:101EE000FF93E091EC03F091ED038081E091F20328
:101EF000F091F30382FD12C090818091F5038F5F12
:101F00008F732091F603821751F0E091F503F0E012
:101F1000E452FC4F958F8093F50301C08081FF91BF
:101F2000EF919F918F912F910F900FBE0F901F9067
:101F300018951F920F920FB60F9211242F933F9373
:101F40004F935F936F937F938F939F93AF93BF93C1
:101F5000EF93FF938CED93E00E945D0EFF91EF9164
:101F6000BF91AF919F918F917F916F915F914F91B1
:101F70003F912F910F900FBE0F901F9018958CEDF1
:101F800093E00E94220E21E0892B09F420E0822FA9
:101F900008951092DF031092DE0388EE93E0A0E034
:101FA000B0E08093E0039093E103A093E203B09349
:101FB000E3038AE792E09093DD038093DC0385ECF2
:101FC00090E09093E9038093E80384EC90E0909391
:101FD000EB038093EA0380EC90E09093ED03809311
:101FE000EC0381EC90E09093EF038093EE0382EC9E
:101FF00090E09093F1038093F00386EC90E090934F
:10200000F3038093F2031092F5031092F6031092FB
:10201000F7031092F803089508950E94C50C0E94DA
:102020000C100E94EF00CFE4DEE00E9471012097C7
:10203000E1F30E944F0EF9CFCF92DF92EF92FF9221
:102040000F931F93CF93DF937C016A01EB0100E0B4
:1020500010E00C151D0571F06991D701ED91FC910F
:102060000190F081E02DC7010995892B19F00F5FD0
:102070001F4FEFCFC801DF91CF911F910F91FF90BC
:10208000EF90DF90CF900895CF93DF9300D000D0F2
:10209000CDB7DEB79B01AC016115710581059105D6
:1020A00069F069833A834B835C830E94F61329812C
:1020B0003A814B815C810E94541303C060E070E060
:1020C000CB010F900F900F900F90DF91CF9108955B
:1020D000CF92DF92EF92FF926B017C016217730740
:1020E0008407950764F4CA01B9016C197D098E094A
:1020F0009F090E9444106C0D7D1D8E1D9F1DFF9039
:10210000EF90DF90CF9008955058BB27AA270ED0AC
:102110007FC170D130F075D120F031F49F3F11F4C0
:102120001EF465C10EF4E095E7FB4DC1E92F81D1A6
:1021300080F3BA17620773078407950718F071F4E4
:102140009EF599C10EF4E0950B2EBA2FA02D0B0130
:10215000B90190010C01CA01A0011124FF27591BEC
:1021600099F0593F50F4503E68F11A16F040A22FF2
:10217000232F342F4427585FF3CF46953795279563
:10218000A795F0405395C9F77EF41F16BA0B620B62
:10219000730B840BBAF09150A1F0FF0FBB1F661FA9
:1021A000771F881FC2F70EC0BA0F621F731F841FEC
:1021B00048F4879577956795B795F7959E3F08F012
:1021C000B3CF9395880F08F09927EE0F97958795D1
:1021D00008950CD01DC115D140F00CD130F021F480
:1021E0005F3F19F0F0C0511147C101C122D198F3EE
:1021F0009923C9F35523B1F3951B550BBB27AA2788
:1022000062177307840738F09F5F5F4F220F331FF9
:10221000441FAA1FA9F333D00E2E3AF0E0E830D0C5
:1022200091505040E695001CCAF729D0FE2F27D0C8
:10223000660F771F881FBB1F261737074807AB0796
:10224000B0E809F0BB0B802DBF01FF2793585F4F0B
:102250002AF09E3F510568F0B6C00EC15F3FECF317
:10226000983EDCF3869577956795B795F7959F5FD0
:10227000C9F7880F911D9695879597F90895E1E024
:10228000660F771F881FBB1F621773078407BA0783
:1022900020F0621B730B840BBA0BEE1F88F7E095DE
:1022A000089504D06894B111E7C00895CAD088F0A9
:1022B0009F5790F0B92F9927B751A0F0D1F0660F32
:1022C000771F881F991F1AF0BA95C9F712C0B1304D
:1022D00081F0D1D0B1E00895CEC0672F782F882744
:1022E000B85F39F0B93FCCF3869577956795B3958C
:1022F000D9F73EF490958095709561957F4F8F4FFB
:102300009F4F0895E89409C097FB3EF490958095FF
:10231000709561957F4F8F4F9F4F9923A9F0F92FAB
:1023200096E9BB279395F695879577956795B79529
:10233000F111F8CFFAF4BB0F11F460FF1BC06F5F0F
:102340007F4F8F4F9F4F16C0882311F096E911C021
:10235000772321F09EE8872F762F05C0662371F042
:1023600096E8862F70E060E02AF09A95660F771F56
:10237000881FDAF7880F9695879597F90895990F32
:102380000008550FAA0BE0E8FEEF16161706E8073F
:10239000F907C0F012161306E407F50798F0621B60
:1023A000730B840B950B39F40A2661F0232B242B35
:1023B000252B21F408950A2609F4A140A6958FEF54
:1023C000811D811D089597F99F6780E870E060E0A6
:1023D00008959F3F31F0915020F487957795679548
:1023E000B795880F911D9695879597F908959FEF5A
:1023F00080EC089500240A9416161706180609069C
:10240000089500240A94121613061406050608956A
:10241000092E0394000C11F4882352F0BB0F40F4F2
:10242000BF2B11F460FF04C06F5F7F4F8F4F9F4F32
:10243000089557FD9058440F551F59F05F3F71F0B4
:102440004795880F97FB991F61F09F3F79F087951B
:102450000895121613061406551FF2CF4695F1DFA4
:1024600008C0161617061806991FF1CF8695710534
:10247000610508940895E894BB2766277727CB0168
:1024800097F908957CDF08F48FEF08950BD0C0CF43
:10249000B1DF28F0B6DF18F0952309F094CFA7CF6D
:1024A0001124EACFC6DFA0F3959FD1F3950F50E03A
:1024B000551F629FF001729FBB27F00DB11D639FF6
:1024C000AA27F00DB11DAA1F649F6627B00DA11D9C
:1024D000661F829F2227B00DA11D621F739FB00D42
:1024E000A11D621F839FA00D611D221F749F3327B2
:1024F000A00D611D231F849F600D211D822F762F4B
:102500006A2F11249F5750408AF0E1F088234AF047
:10251000EE0FFF1FBB1F661F771F881F9150504093
:10252000A9F79E3F510570F04ECFA6CF5F3FECF369
:10253000983EDCF3869577956795B795F795E7957F
:102540009F5FC1F7FE2B880F911D9695879597F990
:1025500008959F9305D00F9007FCEE5F28C047CFEA
:1025600070DFE8F3E894E0E0BB279F57F0F02AED36
:102570003FE049EC06C0EE0FBB0F661F771F881FB8
:1025800028F0B23A62077307840728F0B25A620B48
:10259000730B840BE3959A9572F7803830F49A9513
:1025A000BB0F661F771F881FD2F7904814CFEF9399
:1025B000E0FF06C0A2EA2AED3FE049EC5FEBB6DDA2
:1025C00027DF0F90039401FC9058E8E6F0E000C08C
:1025D0009F938F937F936F93FF93EF939B01AC0136
:1025E00055DFEF91FF9105D02F913F914F915F9172
:1025F0004DCFDF93CF931F930F93FF92EF92DF9214
:102600007B018C01689405C0DA2EEF014BDFFE01DF
:10261000E894A5912591359145915591AEF3EF013F
:1026200085DDFE019701A801DA9479F7DF90EF903C
:10263000FF900F911F91CF91DF91089597FB072E87
:1026400016F4009407D077FD09D00E947E1307FC92
:1026500005D03EF4909581959F4F089570956195B2
:102660007F4F0895A1E21A2EAA1BBB1BFD010DC0CE
:10267000AA1FBB1FEE1FFF1FA217B307E407F50732
:1026800020F0A21BB30BE40BF50B661F771F881F0E
:10269000991F1A9469F760957095809590959B01A4
:1026A000AC01BD01CF010895052E97FB1EF40094E7
:1026B0000E946B1357FD07D00E94321307FC03D012
:1026C0004EF40C946B1350954095309521953F4FE7
:1026D0004F4F5F4F089590958095709561957F4F0E
:1026E0008F4F9F4F08950E949813A59F900DB49F00
:1026F000900DA49F800D911D11240895AA1BBB1B52
:1027000051E107C0AA1FBB1FA617B70710F0A61BF1
:10271000B70B881F991F5A95A9F780959095BC0112
:10272000CD010895EE0FFF1F0590F491E02D09945F
:10273000A29FB001B39FC001A39F700D811D112402
:10274000911DB29F700D811D1124911D08958F92CE
:102750009F92AF92BF92CF92DF92EF92FF92CF9370
:10276000DF93EC01688179818A819B816115710514
:102770008105910521F464E279ED8BE597E02DE187
:1027800033EF41E050E00E94541349015A019B018C
:10279000AC01A7EAB1E40E9473136B017C01ACEEBB
:1027A000B4EFA50194010E94D816C60ED71EE81EEC
:1027B000F91EF7FE06C081E0C81AD108E10880E8DA
:1027C000F80AC882D982EA82FB82C701B6019F77E4
:1027D000DF91CF91FF90EF90DF90CF90BF90AF90BF
:1027E0009F908F9008950E94A713089586E091E02E
:1027F0000E94A713089560930601709307018093C8
:10280000080190930901089581E090E0F8940C94F8
:102810001417FB01DC0102C005900D92415050409D
:10282000D8F70895FB01DC0102C001900D924150E0
:102830005040D8F70895AEE0B0E0E1E2F4E10C9446
:10284000EB168C01CA0146E04C831A83098377FF9B
:1028500002C060E070E8615071097E836D83A90158
:10286000BC01CE0101960E9447144D815E8157FD47
:102870000AC02F813885421753070CF49A01F801DA
:10288000E20FF31F10822E96E4E00C940717ACE0E1
:10289000B0E0EDE4F4E10C94DD167C016B018A01FB
:1028A000FC0117821682838181FFBDC1CE01019692
:1028B0004C01F7019381F60193FD859193FF81917E
:1028C0006F01882309F4ABC1853239F493FD8591FA
:1028D00093FF81916F01853229F4B70190E00E9446
:1028E0004516E7CF512C312C20E02032A0F48B325A
:1028F00069F030F4803259F0833269F420612CC0E1
:102900008D3239F0803339F4216026C02260246092
:1029100023C0286021C027FD27C030ED380F3A3092
:1029200078F426FF06C0FAE05F9E300D1124532E86
:1029300013C08AE0389E300D1124332E20620CC063
:102940008E3221F426FD6BC1206406C08C3611F452
:10295000206802C0883641F4F60193FD859193FF0B
:1029600081916F018111C1CF982F9F7D9554933034
:1029700028F40C5F1F4FFFE3F9830DC0833631F05D
:10298000833771F0833509F05BC022C0F801808184
:1029900089830E5F1F4F44244394512C540115C06A
:1029A0003801F2E06F0E711CF801A080B18026FFA3
:1029B00003C0652D70E002C06FEF7FEFC5012C876B
:1029C0000E943A162C0183012C852F77222E17C0E6
:1029D0003801F2E06F0E711CF801A080B18026FF73
:1029E00003C0652D70E002C06FEF7FEFC5012C873B
:1029F0000E942F162C012C852068222E830123FC97
:102A00001BC0832D90E048165906B0F4B70180E250
:102A100090E00E9445163A94F4CFF50127FC859189
:102A200027FE81915F01B70190E00E9445163110A9
:102A30003A94F1E04F1A51084114510471F7E5C07E
:102A4000843611F0893639F5F80127FF07C0608117
:102A50007181828193810C5F1F4F08C060817181F9
:102A6000882777FD8095982F0E5F1F4F2F76B22E07
:102A700097FF09C090958095709561957F4F8F4F16
:102A80009F4F2068B22E2AE030E0A4010E94771602
:102A9000A82EA81844C0853729F42F7EB22E2AE02C
:102AA00030E025C0F22FF97FBF2E8F36C1F018F429
:102AB000883579F0B4C0803719F0883721F0AFC07D
:102AC0002F2F2061B22EB4FE0DC08B2D8460B82E46
:102AD00009C024FF0AC09F2F9660B92E06C028E0C7
:102AE00030E005C020E130E002C020E132E0F80132
:102AF000B7FE07C060817181828193810C5F1F4F97
:102B000006C06081718180E090E00E5F1F4FA401DC
:102B10000E947716A82EA818FB2DFF77BF2EB6FEB1
:102B20000BC02B2D2E7FA51450F4B4FE0AC0B2FCAE
:102B300008C02B2D2E7E05C07A2C2B2D03C07A2C9D
:102B400001C0752C24FF0DC0FE01EA0DF11D80812E
:102B5000803311F4297E09C022FF06C07394739458
:102B600004C0822F867809F0739423FD13C020FFE0
:102B700006C05A2C731418F4530C5718732C731482
:102B800068F4B70180E290E02C870E9445167394A8
:102B90002C85F5CF731410F4371801C0312C24FFA5
:102BA00012C0B70180E390E02C870E9445162C8567
:102BB00022FF17C021FF03C088E590E002C088E72C
:102BC00090E0B7010CC0822F867859F021FD02C039
:102BD00080E201C08BE227FD8DE2B70190E00E9408
:102BE0004516A51438F4B70180E390E00E9445161D
:102BF0005A94F7CFAA94F401EA0DF11D8081B70130
:102C000090E00E944516A110F5CF332009F451CE73
:102C1000B70180E290E00E9445163A94F6CFF701A2
:102C20008681978102C08FEF9FEF2C96E2E10C9492
:102C3000F916F999FECF92BD81BDF89A992780B512
:102C40000895262FF999FECF1FBA92BD81BD20BDF0
:102C50000FB6F894FA9AF99A0FBE01960895FC01FE
:102C60000590615070400110D8F7809590958E0FB7
:102C70009F1F0895FC016150704001900110D8F72A
:102C8000809590958E0F9F1F08950F931F93CF935C
:102C9000DF93182F092FEB018B8181FD03C08FEF8C
:102CA0009FEF20C082FF10C04E815F812C813D814B
:102CB000421753077CF4E881F9819F012F5F3F4F52
:102CC00039832883108306C0E885F985812F09950B
:102CD000892B29F72E813F812F5F3F4F3F832E8322
:102CE000812F902FDF91CF911F910F910895FA01BD
:102CF000AA27283051F1203181F1E8946F936E7F3B
:102D00006E5F7F4F8F4F9F4FAF4FB1E03ED0B4E02B
:102D10003CD0670F781F891F9A1FA11D680F791F6C
:102D20008A1F911DA11D6A0F711D811D911DA11D7D
:102D300020D009F468943F912AE0269F112430198D
:102D4000305D3193DEF6CF010895462F4770405D28
:102D50004193B3E00FD0C9F7F6CF462F4F70405DD7
:102D60004A3318F0495D31FD4052419302D0A9F732
:102D7000EACFB4E0A6959795879577956795BA952C
:102D8000C9F700976105710508959B01AC010A2EF2
:102D900006945795479537952795BA95C9F7620FC9
:102DA000731F841F951FA01D0895B7FF0C94731304
:102DB0000E947313821B930B08952F923F924F92A0
:102DC0005F926F927F928F929F92AF92BF92CF92BB
:102DD000DF92EF92FF920F931F93CF93DF93CDB7C4
:102DE000DEB7CA1BDB0B0FB6F894DEBF0FBECDBF3C
:102DF00009942A88398848885F846E847D848C840D
:102E00009B84AA84B984C884DF80EE80FD800C8115
:102E10001B81AA81B981CE0FD11D0FB6F894DEBFF8
:0C2E20000FBECDBFED010895F894FFCF68
:102E2C0000007904800001000000980B980B53659A
:102E3C007474696E6720454550524F4D206964206B
:102E4C00746F2025640A004F757220494420697301
:102E5C002025640A006F6F742120256C640A0052CF
:102E6C006164696F20696E6974207375636365654D
:102E7C006465640A00526164696F20696E6974202C
:102E8C006661696C65640A00726563762069643DED
:102E9C0025642C2066633D25750A0073656E6420DD
:102EAC006D7949643D25642C2066633D25750A00C7
:102EBC00000000002003200E200E200E200E5403D4
:102ECC006603AB037403DD03220327032A032D03DC
:102EDC003003330324033A033D0340034303460307
:102EEC0048034C03500300000000200E3B043C043C
:102EFC00200E200E4004440448043D043E043F04CC
:102F0C000000000058045F04630498049604400415
:102F1C004404480467048404950400000000170569
:102F2C00200E200E200E200E54036603AB037403F8
:102F3C00DD03220327032A032D0330033303240369
:102F4C003A033D0340034303460348034C03500339
:102F5C000D0E131516191A1C232526292A2C32346A
:102F6C0000000000140B100A8E083A0A17085403CC
:102F7C006603AB037403DD03190827032A032D032F
:102F8C003003330324033A033D034003430339085E
:102F9C0048034C03500300000000A00E1C10220E2E
:062FAC003B0E2D0E7E0E0F
:107C0000112404B714BE01FD07C003FD27D18CB5B4
:107C10008F7A8CBD802FEAD185E08093810082E04D
:107C20008093C00088E18093C10086E08093C20009
:107C300080E18093C4008EE0FBD0219A86E020E3AF
:107C40003CEF91E0309385002093840096BBB09B7D
:107C5000FECF199AA8958150A9F7EE24FF24AA24F3
:107C6000A394B5E0CB2EA1E1BA2EF3E0DF2ED2D063
:107C7000813461F4CFD0082FE1D0023829F10138E6
:107C800011F485E001C083E0BDD07FC0823411F4DF
:107C900084E103C0853419F485E0D8D076C08535F9
:107CA00079F4B8D0E82EFF24B5D0082F10E0102FBB
:107CB00000270E291F29000F111FC0D0780165C0B1
:107CC000863521F484E0C2D080E0DECF843609F02E
:107CD00040C0A0D09FD0082F9DD080E0E81680E75C
:107CE000F80618F4F701D7BEE895C0E0D1E092D0CD
:107CF00089930C17E1F7F0E0EF16F0E7FF0618F0B4
:107D0000F701D7BEE8959AD007B600FCFDCFA701D2
:107D1000A0E0B1E02C9130E011968C91119790E0A9
:107D2000982F8827822B932B1296FA010C01A7BE5D
:107D3000E89511244E5F5F4FF1E0A038BF0751F77F
:107D4000F701C7BEE89507B600FCFDCFB7BEE895C2
:107D50001CC0843761F45ED05DD0082F5BD06ED03C
:107D6000F70185917F014ED00150D1F70EC08537C4
:107D700039F464D08EE146D085E944D08FE084CFD9
:107D8000813511F488E054D059D080E13BD06FCFD9
:107D90008EBD0DB407FEFDCF8EB50895289885E001
:107DA000F7DF80E0F5DF289A817008951F93182F80
:107DB000662321F086E060E0F9DF289AEFDF882370
:107DC000E9F72898812FE4DF1F910895EF92FF9241
:107DD0000F931F937B018C0183E060E0E7DFC80114
:107DE000AA27BB27D5DFBB27A12F902F8F2DD0DF50
:107DF0008E2DCEDF80E0CCDF289A1F910F91FF906F
:107E0000EF900895982F8091C00085FFFCCF90934C
:107E1000C6000895199A8091C00087FFFCCF809119
:107E2000C00084FD01C0A8958091C600199A0895EC
:107E3000E0E6F0E098E1908380830895EBDF803204
:107E400019F088E0F5DFFFCF84E1DCCF1F93182F16
:107E5000E1DF1150E9F7F2DF1F9108959F92AF9291
:107E6000BF92CF92DF92EF92FF920F931F93CF9327
:107E7000DF9380E0DDDF84B18D6284B9289A2A9A8D
:107E80008CB580658CBD28988FE982DF80E080DF2B
:107E9000289A81508E3F08F09DC081E061E086DF26
:107EA00080E076DF289A60E070E080E090E08EDF8E
:107EB000863409F08FC061E070E080E090E086DFFA
:107EC0008C3409F087C062E070E080E090E07EDFF3
:107ED000883509F07FC066E070E080E090E076DFF2
:107EE0008A3309F077C069E070E080E090E06EDFEF
:107EF0008A3309F06FC067E070E080E090E066DFF1
:107F0000082F68E070E080E090E060DF10E0F02E85
:107F1000EE2490E0E82AF92AE0FC5CC0199AC0E05F
:107F2000D0E0CC24DD249924939443E0A42E35E0C2
:107F3000B32E30C02A96BE0180E090E047DF082FC4
:107F400010E02196BE0180E090E02B973FDF90E0AB
:107F5000982F8827802B912BFE010C0197BEE89566
:107F600011242296CE018F779070892B19F0CE15AF
:107F7000DF0581F4F601A7BEE89507B600FCFDCF4A
:107F8000F601B7BEE89507B600FCFDCF80E890E0AB
:107F9000C80ED91ECE15DF0508F4CCCF199881E1A3
:107FA00087BFE895EAE0F0E0EE0EFF1EF1E0EF1685
:107FB000F0E8FF0610F482E501C088ED61E0F6DE2E
:107FC00080E0E6DE80E0E4DE80E0E2DE289A88E021
:107FD0002FDFFFCFDF91CF911F910F91FF90EF9097
:107FE000DF90CF90BF90AF909F900895282E80E0B3
:087FF0001FDFEE27FF270994B3
:027FFE0000057C
:0400000300007C007D
:00000001FF